:0309870001080064
:10090800E4FDFCC3ED9FEC9E5015E4FBFA0BBB0025
:0F091800010AEB64354A70F50DBD00010C80E457
:0109270022AD
:100928008F80D2B6C2B67F027E001209087580FF9A
:06093800D2B7AF80C2B788
:01093E002296
:09096300D292D291C2B4C29022DA
:09096C00C292C291D2B4D29022D1
:09097500D292C291C2B4C29022D8
:09097E00C292D291C2B4C29022CF
:0A093F001209757FF47E0112090809
:09094900C292C291C2B4C2902214
:10095200758920758DFD758840759850C298C29929
:010962002272
:02098B00AF9922
:01098D002247
:10088C00D2A7D293D2941209527F021209288F0850
:10089C0030985612098BA907B94607120963C298FA
:1008AC00C299B9420712096CC298C299B94C0A1282
:1008BC00094912093FC298C299B9520D120949123D
:1008CC00097E120942C298C299B95307120949C24A
:1008DC0098C299B94F06C2A7C298C299B94E06D20E
:1008EC00A7C298C299C298C299E508C3946E409960
:0C08FC0012094912096C12093F0208950C
:03000000020800F3
:0C080000787FE4F6D8FD758108020847F7
:10080C0002088CE493A3F8E493A34003F68001F26E
:10081C0008DFF48029E493A3F85407240CC8C333ED
:10082C00C4540F4420C8834004F456800146F6DFBC
:10083C00E4800B0102040810204080900987E47EBC
:10084C00019360BCA3FF543F30E509541FFEE493B1
:10085C00A360010ECF54C025E060A840B8E493A378
:10086C00FAE493A3F8E493A3C8C582C8CAC583CAA3
:10087C00F0A3C8C582C8CAC583CADFE9DEE780BE5B
:01098A00006C
:00000001FF
